{
	"data": {
		"bytecode": {
			"linkReferences": {},
			"object": "60806040526000600c55604051620009d5380380620009d583398181016040528101906200002e919062000214565b8260048190555042600d81905550605a426200004b9190620002ee565b6005819055507313066ee900a8c4e2c9cd7ce0096adf9b907d0cff600860006101000a81548173ffffffffffffffffffffffffffffffffffffffff021916908373ffffffffffffffffffffffffffffffffffffffff1602179055508160039080519060200190620000be929190620000cf565b5080600681905550505050620004c3565b828054620000dd906200038b565b90600052602060002090601f0160209004810192826200010157600085556200014d565b82601f106200011c57805160ff19168380011785556200014d565b828001600101855582156200014d579182015b828111156200014c5782518255916020019190600101906200012f565b5b5090506200015c919062000160565b5090565b5b808211156200017b57600081600090555060010162000161565b5090565b6000620001966200019084620002b8565b6200028f565b905082815260208101848484011115620001b557620001b462000489565b5b620001c284828562000355565b509392505050565b600082601f830112620001e257620001e162000484565b5b8151620001f48482602086016200017f565b91505092915050565b6000815190506200020e81620004a9565b92915050565b60008060006060848603121562000230576200022f62000493565b5b60006200024086828701620001fd565b935050602084015167ffffffffffffffff8111156200026457620002636200048e565b5b6200027286828701620001ca565b92505060406200028586828701620001fd565b9150509250925092565b60006200029b620002ae565b9050620002a98282620003c1565b919050565b6000604051905090565b600067ffffffffffffffff821115620002d657620002d562000455565b5b620002e18262000498565b9050602081019050919050565b6000620002fb826200034b565b915062000308836200034b565b9250827fffffffffffffffffffffffffffffffffffffffffffffffffffffffffffffffff0382111562000340576200033f620003f7565b5b828201905092915050565b6000819050919050565b60005b838110156200037557808201518184015260208101905062000358565b8381111562000385576000848401525b50505050565b60006002820490506001821680620003a457607f821691505b60208210811415620003bb57620003ba62000426565b5b50919050565b620003cc8262000498565b810181811067ffffffffffffffff82111715620003ee57620003ed62000455565b5b80604052505050565b7f4e487b7100000000000000000000000000000000000000000000000000000000600052601160045260246000fd5b7f4e487b7100000000000000000000000000000000000000000000000000000000600052602260045260246000fd5b7f4e487b7100000000000000000000000000000000000000000000000000000000600052604160045260246000fd5b600080fd5b600080fd5b600080fd5b600080fd5b6000601f19601f8301169050919050565b620004b4816200034b565b8114620004c057600080fd5b50565b61050280620004d36000396000f3fe6080604052600436106100345760003560e01c80631998aeef146100395780635bc60cfc14610043578063828b74d61461005f575b600080fd5b61004161007b565b005b61005d600480360381019061005891906102f0565b61012a565b005b610079600480360381019061007491906102f0565b610233565b005b60065460015461008b9190610372565b341115610128573460018190555033600960006101000a81548173ffffffffffffffffffffffffffffffffffffffff021916908373ffffffffffffffffffffffffffffffffffffffff160217905550600a600554101580156100ef5750600a600c54105b1561012757600a600560008282546101079190610372565b92505081905550600c600081548092919061012190610438565b91905055505b5b565b60004260055461013a91906103c8565b111561014557600080fd5b600960009054906101000a900473ffffffffffffffffffffffffffffffffffffffff1673ffffffffffffffffffffffffffffffffffffffff163373ffffffffffffffffffffffffffffffffffffffff161461019f57600080fd5b600860009054906101000a900473ffffffffffffffffffffffffffffffffffffffff1673ffffffffffffffffffffffffffffffffffffffff166342842e0e3033846040518463ffffffff1660e01b81526004016101fe9392919061033b565b600060405180830381600087803b15801561021857600080fd5b505af115801561022c573d6000803e3d6000fd5b5050505050565b600860009054906101000a900473ffffffffffffffffffffffffffffffffffffffff1673ffffffffffffffffffffffffffffffffffffffff166342842e0e3073032f3d8806effb5cc161a98d881c25763f4590d9846040518463ffffffff1660e01b81526004016102a69392919061033b565b600060405180830381600087803b1580156102c057600080fd5b505af11580156102d4573d6000803e3d6000fd5b5050505050565b6000813590506102ea816104b5565b92915050565b600060208284031215610306576103056104b0565b5b6000610314848285016102db565b91505092915050565b610326816103fc565b82525050565b6103358161042e565b82525050565b6000606082019050610350600083018661031d565b61035d602083018561031d565b61036a604083018461032c565b949350505050565b600061037d8261042e565b91506103888361042e565b9250827fffffffffffffffffffffffffffffffffffffffffffffffffffffffffffffffff038211156103bd576103bc610481565b5b828201905092915050565b60006103d38261042e565b91506103de8361042e565b9250828210156103f1576103f0610481565b5b828203905092915050565b60006104078261040e565b9050919050565b600073ffffffffffffffffffffffffffffffffffffffff82169050919050565b6000819050919050565b60006104438261042e565b91507fffffffffffffffffffffffffffffffffffffffffffffffffffffffffffffffff82141561047657610475610481565b5b600182019050919050565b7f4e487b7100000000000000000000000000000000000000000000000000000000600052601160045260246000fd5b600080fd5b6104be8161042e565b81146104c957600080fd5b5056fea26469706673582212201b2d8af423738c4a80eab2482b7df71cdbfe7b53c21702ce29b52e330d27a61464736f6c63430008070033",
			"opcodes": "PUSH1 0x80 PUSH1 0x40 MSTORE PUSH1 0x0 PUSH1 0xC SSTORE PUSH1 0x40 MLOAD PUSH3 0x9D5 CODESIZE SUB DUP1 PUSH3 0x9D5 DUP4 CODECOPY DUP2 DUP2 ADD PUSH1 0x40 MSTORE DUP2 ADD SWAP1 PUSH3 0x2E SWAP2 SWAP1 PUSH3 0x214 JUMP JUMPDEST DUP3 PUSH1 0x4 DUP2 SWAP1 SSTORE POP TIMESTAMP PUSH1 0xD DUP2 SWAP1 SSTORE POP PUSH1 0x5A TIMESTAMP PUSH3 0x4B SWAP2 SWAP1 PUSH3 0x2EE JUMP JUMPDEST PUSH1 0x5 DUP2 SWAP1 SSTORE POP PUSH20 0x13066EE900A8C4E2C9CD7CE0096ADF9B907D0CFF PUSH1 0x8 PUSH1 0x0 PUSH2 0x100 EXP DUP2 SLOAD DUP2 PUSH20 0xFFFFFFFFFFFFFFFFFFFFFFFFFFFFFFFFFFFFFFFF MUL NOT AND SWAP1 DUP4 PUSH20 0xFFFFFFFFFFFFFFFFFFFFFFFFFFFFFFFFFFFFFFFF AND MUL OR SWAP1 SSTORE POP DUP2 PUSH1 0x3 SWAP1 DUP1 MLOAD SWAP1 PUSH1 0x20 ADD SWAP1 PUSH3 0xBE SWAP3 SWAP2 SWAP1 PUSH3 0xCF JUMP JUMPDEST POP DUP1 PUSH1 0x6 DUP2 SWAP1 SSTORE POP POP POP POP PUSH3 0x4C3 JUMP JUMPDEST DUP3 DUP1 SLOAD PUSH3 0xDD SWAP1 PUSH3 0x38B JUMP JUMPDEST SWAP1 PUSH1 0x0 MSTORE PUSH1 0x20 PUSH1 0x0 KECCAK256 SWAP1 PUSH1 0x1F ADD PUSH1 0x20 SWAP1 DIV DUP2 ADD SWAP3 DUP3 PUSH3 0x101 JUMPI PUSH1 0x0 DUP6 SSTORE PUSH3 0x14D JUMP JUMPDEST DUP3 PUSH1 0x1F LT PUSH3 0x11C JUMPI DUP1 MLOAD PUSH1 0xFF NOT AND DUP4 DUP1 ADD OR DUP6 SSTORE PUSH3 0x14D JUMP JUMPDEST DUP3 DUP1 ADD PUSH1 0x1 ADD DUP6 SSTORE DUP3 ISZERO PUSH3 0x14D JUMPI SWAP2 DUP3 ADD JUMPDEST DUP3 DUP2 GT ISZERO PUSH3 0x14C JUMPI DUP3 MLOAD DUP3 SSTORE SWAP2 PUSH1 0x20 ADD SWAP2 SWAP1 PUSH1 0x1 ADD SWAP1 PUSH3 0x12F JUMP JUMPDEST JUMPDEST POP SWAP1 POP PUSH3 0x15C SWAP2 SWAP1 PUSH3 0x160 JUMP JUMPDEST POP SWAP1 JUMP JUMPDEST JUMPDEST DUP1 DUP3 GT ISZERO PUSH3 0x17B JUMPI PUSH1 0x0 DUP2 PUSH1 0x0 SWAP1 SSTORE POP PUSH1 0x1 ADD PUSH3 0x161 JUMP JUMPDEST POP SWAP1 JUMP JUMPDEST PUSH1 0x0 PUSH3 0x196 PUSH3 0x190 DUP5 PUSH3 0x2B8 JUMP JUMPDEST PUSH3 0x28F JUMP JUMPDEST SWAP1 POP DUP3 DUP2 MSTORE PUSH1 0x20 DUP2 ADD DUP5 DUP5 DUP5 ADD GT ISZERO PUSH3 0x1B5 JUMPI PUSH3 0x1B4 PUSH3 0x489 JUMP JUMPDEST JUMPDEST PUSH3 0x1C2 DUP5 DUP3 DUP6 PUSH3 0x355 JUMP JUMPDEST POP SWAP4 SWAP3 POP POP POP JUMP JUMPDEST PUSH1 0x0 DUP3 PUSH1 0x1F DUP4 ADD SLT PUSH3 0x1E2 JUMPI PUSH3 0x1E1 PUSH3 0x484 JUMP JUMPDEST JUMPDEST DUP2 MLOAD PUSH3 0x1F4 DUP5 DUP3 PUSH1 0x20 DUP7 ADD PUSH3 0x17F JUMP JUMPDEST SWAP2 POP POP SWAP3 SWAP2 POP POP JUMP JUMPDEST PUSH1 0x0 DUP2 MLOAD SWAP1 POP PUSH3 0x20E DUP2 PUSH3 0x4A9 JUMP JUMPDEST SWAP3 SWAP2 POP POP JUMP JUMPDEST PUSH1 0x0 DUP1 PUSH1 0x0 PUSH1 0x60 DUP5 DUP7 SUB SLT ISZERO PUSH3 0x230 JUMPI PUSH3 0x22F PUSH3 0x493 JUMP JUMPDEST JUMPDEST PUSH1 0x0 PUSH3 0x240 DUP7 DUP3 DUP8 ADD PUSH3 0x1FD JUMP JUMPDEST SWAP4 POP POP PUSH1 0x20 DUP5 ADD MLOAD PUSH8 0xFFFFFFFFFFFFFFFF DUP2 GT ISZERO PUSH3 0x264 JUMPI PUSH3 0x263 PUSH3 0x48E JUMP JUMPDEST JUMPDEST PUSH3 0x272 DUP7 DUP3 DUP8 ADD PUSH3 0x1CA JUMP JUMPDEST SWAP3 POP POP PUSH1 0x40 PUSH3 0x285 DUP7 DUP3 DUP8 ADD PUSH3 0x1FD JUMP JUMPDEST SWAP2 POP POP SWAP3 POP SWAP3 POP SWAP3 JUMP JUMPDEST PUSH1 0x0 PUSH3 0x29B PUSH3 0x2AE JUMP JUMPDEST SWAP1 POP PUSH3 0x2A9 DUP3 DUP3 PUSH3 0x3C1 JUMP JUMPDEST SWAP2 SWAP1 POP JUMP JUMPDEST PUSH1 0x0 PUSH1 0x40 MLOAD SWAP1 POP SWAP1 JUMP JUMPDEST PUSH1 0x0 PUSH8 0xFFFFFFFFFFFFFFFF DUP3 GT ISZERO PUSH3 0x2D6 JUMPI PUSH3 0x2D5 PUSH3 0x455 JUMP JUMPDEST JUMPDEST PUSH3 0x2E1 DUP3 PUSH3 0x498 JUMP JUMPDEST SWAP1 POP PUSH1 0x20 DUP2 ADD SWAP1 POP SWAP2 SWAP1 POP JUMP JUMPDEST PUSH1 0x0 PUSH3 0x2FB DUP3 PUSH3 0x34B JUMP JUMPDEST SWAP2 POP PUSH3 0x308 DUP4 PUSH3 0x34B JUMP JUMPDEST SWAP3 POP DUP3 PUSH32 0xFFFFFFFFFFFFFFFFFFFFFFFFFFFFFFFFFFFFFFFFFFFFFFFFFFFFFFFFFFFFFFFF SUB DUP3 GT ISZERO PUSH3 0x340 JUMPI PUSH3 0x33F PUSH3 0x3F7 JUMP JUMPDEST JUMPDEST DUP3 DUP3 ADD SWAP1 POP SWAP3 SWAP2 POP POP JUMP JUMPDEST PUSH1 0x0 DUP2 SWAP1 POP SWAP2 SWAP1 POP JUMP JUMPDEST PUSH1 0x0 JUMPDEST DUP4 DUP2 LT ISZERO PUSH3 0x375 JUMPI DUP1 DUP3 ADD MLOAD DUP2 DUP5 ADD MSTORE PUSH1 0x20 DUP2 ADD SWAP1 POP PUSH3 0x358 JUMP JUMPDEST DUP4 DUP2 GT ISZERO PUSH3 0x385 JUMPI PUSH1 0x0 DUP5 DUP5 ADD MSTORE JUMPDEST POP POP POP POP JUMP JUMPDEST PUSH1 0x0 PUSH1 0x2 DUP3 DIV SWAP1 POP PUSH1 0x1 DUP3 AND DUP1 PUSH3 0x3A4 JUMPI PUSH1 0x7F DUP3 AND SWAP2 POP JUMPDEST PUSH1 0x20 DUP3 LT DUP2 EQ ISZERO PUSH3 0x3BB JUMPI PUSH3 0x3BA PUSH3 0x426 JUMP JUMPDEST JUMPDEST POP SWAP2 SWAP1 POP JUMP JUMPDEST PUSH3 0x3CC DUP3 PUSH3 0x498 JUMP JUMPDEST DUP2 ADD DUP2 DUP2 LT PUSH8 0xFFFFFFFFFFFFFFFF DUP3 GT OR ISZERO PUSH3 0x3EE JUMPI PUSH3 0x3ED PUSH3 0x455 JUMP JUMPDEST JUMPDEST DUP1 PUSH1 0x40 MSTORE POP POP POP JUMP JUMPDEST PUSH32 0x4E487B7100000000000000000000000000000000000000000000000000000000 PUSH1 0x0 MSTORE PUSH1 0x11 PUSH1 0x4 MSTORE PUSH1 0x24 PUSH1 0x0 REVERT JUMPDEST PUSH32 0x4E487B7100000000000000000000000000000000000000000000000000000000 PUSH1 0x0 MSTORE PUSH1 0x22 PUSH1 0x4 MSTORE PUSH1 0x24 PUSH1 0x0 REVERT JUMPDEST PUSH32 0x4E487B7100000000000000000000000000000000000000000000000000000000 PUSH1 0x0 MSTORE PUSH1 0x41 PUSH1 0x4 MSTORE PUSH1 0x24 PUSH1 0x0 REVERT JUMPDEST PUSH1 0x0 DUP1 REVERT JUMPDEST PUSH1 0x0 DUP1 REVERT JUMPDEST PUSH1 0x0 DUP1 REVERT JUMPDEST PUSH1 0x0 DUP1 REVERT JUMPDEST PUSH1 0x0 PUSH1 0x1F NOT PUSH1 0x1F DUP4 ADD AND SWAP1 POP SWAP2 SWAP1 POP JUMP JUMPDEST PUSH3 0x4B4 DUP2 PUSH3 0x34B JUMP JUMPDEST DUP2 EQ PUSH3 0x4C0 JUMPI PUSH1 0x0 DUP1 REVERT JUMPDEST POP JUMP JUMPDEST PUSH2 0x502 DUP1 PUSH3 0x4D3 PUSH1 0x0 CODECOPY PUSH1 0x0 RETURN INVALID PUSH1 0x80 PUSH1 0x40 MSTORE PUSH1 0x4 CALLDATASIZE LT PUSH2 0x34 JUMPI PUSH1 0x0 CALLDATALOAD PUSH1 0xE0 SHR DUP1 PUSH4 0x1998AEEF EQ PUSH2 0x39 JUMPI DUP1 PUSH4 0x5BC60CFC EQ PUSH2 0x43 JUMPI DUP1 PUSH4 0x828B74D6 EQ PUSH2 0x5F JUMPI JUMPDEST PUSH1 0x0 DUP1 REVERT JUMPDEST PUSH2 0x41 PUSH2 0x7B JUMP JUMPDEST STOP JUMPDEST PUSH2 0x5D PUSH1 0x4 DUP1 CALLDATASIZE SUB DUP2 ADD SWAP1 PUSH2 0x58 SWAP2 SWAP1 PUSH2 0x2F0 JUMP JUMPDEST PUSH2 0x12A JUMP JUMPDEST STOP JUMPDEST PUSH2 0x79 PUSH1 0x4 DUP1 CALLDATASIZE SUB DUP2 ADD SWAP1 PUSH2 0x74 SWAP2 SWAP1 PUSH2 0x2F0 JUMP JUMPDEST PUSH2 0x233 JUMP JUMPDEST STOP JUMPDEST PUSH1 0x6 SLOAD PUSH1 0x1 SLOAD PUSH2 0x8B SWAP2 SWAP1 PUSH2 0x372 JUMP JUMPDEST CALLVALUE GT ISZERO PUSH2 0x128 JUMPI CALLVALUE PUSH1 0x1 DUP2 SWAP1 SSTORE POP CALLER PUSH1 0x9 PUSH1 0x0 PUSH2 0x100 EXP DUP2 SLOAD DUP2 PUSH20 0xFFFFFFFFFFFFFFFFFFFFFFFFFFFFFFFFFFFFFFFF MUL NOT AND SWAP1 DUP4 PUSH20 0xFFFFFFFFFFFFFFFFFFFFFFFFFFFFFFFFFFFFFFFF AND MUL OR SWAP1 SSTORE POP PUSH1 0xA PUSH1 0x5 SLOAD LT ISZERO DUP1 ISZERO PUSH2 0xEF JUMPI POP PUSH1 0xA PUSH1 0xC SLOAD LT JUMPDEST ISZERO PUSH2 0x127 JUMPI PUSH1 0xA PUSH1 0x5 PUSH1 0x0 DUP3 DUP3 SLOAD PUSH2 0x107 SWAP2 SWAP1 PUSH2 0x372 JUMP JUMPDEST SWAP3 POP POP DUP2 SWAP1 SSTORE POP PUSH1 0xC PUSH1 0x0 DUP2 SLOAD DUP1 SWAP3 SWAP2 SWAP1 PUSH2 0x121 SWAP1 PUSH2 0x438 JUMP JUMPDEST SWAP2 SWAP1 POP SSTORE POP JUMPDEST JUMPDEST JUMP JUMPDEST PUSH1 0x0 TIMESTAMP PUSH1 0x5 SLOAD PUSH2 0x13A SWAP2 SWAP1 PUSH2 0x3C8 JUMP JUMPDEST GT ISZERO PUSH2 0x145 JUMPI PUSH1 0x0 DUP1 REVERT JUMPDEST PUSH1 0x9 PUSH1 0x0 SWAP1 SLOAD SWAP1 PUSH2 0x100 EXP SWAP1 DIV PUSH20 0xFFFFFFFFFFFFFFFFFFFFFFFFFFFFFFFFFFFFFFFF AND PUSH20 0xFFFFFFFFFFFFFFFFFFFFFFFFFFFFFFFFFFFFFFFF AND CALLER PUSH20 0xFFFFFFFFFFFFFFFFFFFFFFFFFFFFFFFFFFFFFFFF AND EQ PUSH2 0x19F JUMPI PUSH1 0x0 DUP1 REVERT JUMPDEST PUSH1 0x8 PUSH1 0x0 SWAP1 SLOAD SWAP1 PUSH2 0x100 EXP SWAP1 DIV PUSH20 0xFFFFFFFFFFFFFFFFFFFFFFFFFFFFFFFFFFFFFFFF AND PUSH20 0xFFFFFFFFFFFFFFFFFFFFFFFFFFFFFFFFFFFFFFFF AND PUSH4 0x42842E0E ADDRESS CALLER DUP5 PUSH1 0x40 MLOAD DUP5 PUSH4 0xFFFFFFFF AND PUSH1 0xE0 SHL DUP2 MSTORE PUSH1 0x4 ADD PUSH2 0x1FE SWAP4 SWAP3 SWAP2 SWAP1 PUSH2 0x33B JUMP JUMPDEST PUSH1 0x0 PUSH1 0x40 MLOAD DUP1 DUP4 SUB DUP2 PUSH1 0x0 DUP8 DUP1 EXTCODESIZE ISZERO DUP1 ISZERO PUSH2 0x218 JUMPI PUSH1 0x0 DUP1 REVERT JUMPDEST POP GAS CALL ISZERO DUP1 ISZERO PUSH2 0x22C JUMPI RETURNDATASIZE PUSH1 0x0 DUP1 RETURNDATACOPY RETURNDATASIZE PUSH1 0x0 REVERT JUMPDEST POP POP POP POP POP JUMP JUMPDEST PUSH1 0x8 PUSH1 0x0 SWAP1 SLOAD SWAP1 PUSH2 0x100 EXP SWAP1 DIV PUSH20 0xFFFFFFFFFFFFFFFFFFFFFFFFFFFFFFFFFFFFFFFF AND PUSH20 0xFFFFFFFFFFFFFFFFFFFFFFFFFFFFFFFFFFFFFFFF AND PUSH4 0x42842E0E ADDRESS PUSH20 0x32F3D8806EFFB5CC161A98D881C25763F4590D9 DUP5 PUSH1 0x40 MLOAD DUP5 PUSH4 0xFFFFFFFF AND PUSH1 0xE0 SHL DUP2 MSTORE PUSH1 0x4 ADD PUSH2 0x2A6 SWAP4 SWAP3 SWAP2 SWAP1 PUSH2 0x33B JUMP JUMPDEST PUSH1 0x0 PUSH1 0x40 MLOAD DUP1 DUP4 SUB DUP2 PUSH1 0x0 DUP8 DUP1 EXTCODESIZE ISZERO DUP1 ISZERO PUSH2 0x2C0 JUMPI PUSH1 0x0 DUP1 REVERT JUMPDEST POP GAS CALL ISZERO DUP1 ISZERO PUSH2 0x2D4 JUMPI RETURNDATASIZE PUSH1 0x0 DUP1 RETURNDATACOPY RETURNDATASIZE PUSH1 0x0 REVERT JUMPDEST POP POP POP POP POP JUMP JUMPDEST PUSH1 0x0 DUP2 CALLDATALOAD SWAP1 POP PUSH2 0x2EA DUP2 PUSH2 0x4B5 JUMP JUMPDEST SWAP3 SWAP2 POP POP JUMP JUMPDEST PUSH1 0x0 PUSH1 0x20 DUP3 DUP5 SUB SLT ISZERO PUSH2 0x306 JUMPI PUSH2 0x305 PUSH2 0x4B0 JUMP JUMPDEST JUMPDEST PUSH1 0x0 PUSH2 0x314 DUP5 DUP3 DUP6 ADD PUSH2 0x2DB JUMP JUMPDEST SWAP2 POP POP SWAP3 SWAP2 POP POP JUMP JUMPDEST PUSH2 0x326 DUP2 PUSH2 0x3FC JUMP JUMPDEST DUP3 MSTORE POP POP JUMP JUMPDEST PUSH2 0x335 DUP2 PUSH2 0x42E JUMP JUMPDEST DUP3 MSTORE POP POP JUMP JUMPDEST PUSH1 0x0 PUSH1 0x60 DUP3 ADD SWAP1 POP PUSH2 0x350 PUSH1 0x0 DUP4 ADD DUP7 PUSH2 0x31D JUMP JUMPDEST PUSH2 0x35D PUSH1 0x20 DUP4 ADD DUP6 PUSH2 0x31D JUMP JUMPDEST PUSH2 0x36A PUSH1 0x40 DUP4 ADD DUP5 PUSH2 0x32C JUMP JUMPDEST SWAP5 SWAP4 POP POP POP POP JUMP JUMPDEST PUSH1 0x0 PUSH2 0x37D DUP3 PUSH2 0x42E JUMP JUMPDEST SWAP2 POP PUSH2 0x388 DUP4 PUSH2 0x42E JUMP JUMPDEST SWAP3 POP DUP3 PUSH32 0xFFFFFFFFFFFFFFFFFFFFFFFFFFFFFFFFFFFFFFFFFFFFFFFFFFFFFFFFFFFFFFFF SUB DUP3 GT ISZERO PUSH2 0x3BD JUMPI PUSH2 0x3BC PUSH2 0x481 JUMP JUMPDEST JUMPDEST DUP3 DUP3 ADD SWAP1 POP SWAP3 SWAP2 POP POP JUMP JUMPDEST PUSH1 0x0 PUSH2 0x3D3 DUP3 PUSH2 0x42E JUMP JUMPDEST SWAP2 POP PUSH2 0x3DE DUP4 PUSH2 0x42E JUMP JUMPDEST SWAP3 POP DUP3 DUP3 LT ISZERO PUSH2 0x3F1 JUMPI PUSH2 0x3F0 PUSH2 0x481 JUMP JUMPDEST JUMPDEST DUP3 DUP3 SUB SWAP1 POP SWAP3 SWAP2 POP POP JUMP JUMPDEST PUSH1 0x0 PUSH2 0x407 DUP3 PUSH2 0x40E JUMP JUMPDEST SWAP1 POP SWAP2 SWAP1 POP JUMP JUMPDEST PUSH1 0x0 PUSH20 0xFFFFFFFFFFFFFFFFFFFFFFFFFFFFFFFFFFFFFFFF DUP3 AND SWAP1 POP SWAP2 SWAP1 POP JUMP JUMPDEST PUSH1 0x0 DUP2 SWAP1 POP SWAP2 SWAP1 POP JUMP JUMPDEST PUSH1 0x0 PUSH2 0x443 DUP3 PUSH2 0x42E JUMP JUMPDEST SWAP2 POP PUSH32 0xFFFFFFFFFFFFFFFFFFFFFFFFFFFFFFFFFFFFFFFFFFFFFFFFFFFFFFFFFFFFFFFF DUP3 EQ ISZERO PUSH2 0x476 JUMPI PUSH2 0x475 PUSH2 0x481 JUMP JUMPDEST JUMPDEST PUSH1 0x1 DUP3 ADD SWAP1 POP SWAP2 SWAP1 POP JUMP JUMPDEST PUSH32 0x4E487B7100000000000000000000000000000000000000000000000000000000 PUSH1 0x0 MSTORE PUSH1 0x11 PUSH1 0x4 MSTORE PUSH1 0x24 PUSH1 0x0 REVERT JUMPDEST PUSH1 0x0 DUP1 REVERT JUMPDEST PUSH2 0x4BE DUP2 PUSH2 0x42E JUMP JUMPDEST DUP2 EQ PUSH2 0x4C9 JUMPI PUSH1 0x0 DUP1 REVERT JUMPDEST POP JUMP INVALID LOG2 PUSH5 0x6970667358 0x22 SLT KECCAK256 SHL 0x2D DUP11 DELEGATECALL 0x23 PUSH20 0x8C4A80EAB2482B7DF71CDBFE7B53C21702CE29B5 0x2E CALLER 0xD 0x27 0xA6 EQ PUSH5 0x736F6C6343 STOP ADDMOD SMOD STOP CALLER "
		},
		"gasEstimates": {
			"creation": {
				"codeDepositCost": "256400",
				"executionCost": "infinite",
				"totalCost": "infinite"
			},
			"external": {
				"bid()": "infinite",
				"transferTest(uint256)": "infinite",
				"win(uint256)": "infinite"
			}
		},
		"methodIdentifiers": {
			"bid()": "1998aeef",
			"transferTest(uint256)": "828b74d6",
			"win(uint256)": "5bc60cfc"
		}
	},
	"abi": [
		{
			"inputs": [
				{
					"internalType": "uint256",
					"name": "minPrice",
					"type": "uint256"
				},
				{
					"internalType": "string",
					"name": "descrip",
					"type": "string"
				},
				{
					"internalType": "uint256",
					"name": "increment",
					"type": "uint256"
				}
			],
			"stateMutability": "payable",
			"type": "constructor"
		},
		{
			"inputs": [],
			"name": "bid",
			"outputs": [],
			"stateMutability": "payable",
			"type": "function"
		},
		{
			"inputs": [
				{
					"internalType": "uint256",
					"name": "nftId",
					"type": "uint256"
				}
			],
			"name": "transferTest",
			"outputs": [],
			"stateMutability": "payable",
			"type": "function"
		},
		{
			"inputs": [
				{
					"internalType": "uint256",
					"name": "nftId",
					"type": "uint256"
				}
			],
			"name": "win",
			"outputs": [],
			"stateMutability": "payable",
			"type": "function"
		}
	]
}