{
	"data": {
		"bytecode": {
			"linkReferences": {},
			"object": "60806040526000600c5534801561001557600080fd5b506105be806100256000396000f3fe6080604052600436106100295760003560e01c80631998aeef1461002e578063a7e5922914610038575b600080fd5b610036610061565b005b34801561004457600080fd5b5061005f600480360381019061005a91906102a5565b6100e9565b005b6001543411156100e7573460018190555033600960006101000a81548173ffffffffffffffffffffffffffffffffffffffff021916908373ffffffffffffffffffffffffffffffffffffffff160217905550600a8054101580156100c75750600a600c54105b156100e657600a8060008282546100de9190610392565b925050819055505b5b565b8460048190555083426100fc9190610392565b60058190555082600860006101000a81548173ffffffffffffffffffffffffffffffffffffffff021916908373ffffffffffffffffffffffffffffffffffffffff1602179055508160039080519060200190610159929190610168565b50806006819055505050505050565b82805461017490610445565b90600052602060002090601f01602090048101928261019657600085556101dd565b82601f106101af57805160ff19168380011785556101dd565b828001600101855582156101dd579182015b828111156101dc5782518255916020019190600101906101c1565b5b5090506101ea91906101ee565b5090565b5b808211156102075760008160009055506001016101ef565b5090565b600061021e61021984610361565b61033c565b90508281526020810184848401111561023a5761023961053a565b5b610245848285610436565b509392505050565b60008135905061025c8161055a565b92915050565b600082601f83011261027757610276610535565b5b813561028784826020860161020b565b91505092915050565b60008135905061029f81610571565b92915050565b600080600080600060a086880312156102c1576102c0610544565b5b60006102cf88828901610290565b95505060206102e088828901610290565b94505060406102f18882890161024d565b935050606086013567ffffffffffffffff8111156103125761031161053f565b5b61031e88828901610262565b925050608061032f88828901610290565b9150509295509295909350565b6000610346610357565b90506103528282610477565b919050565b6000604051905090565b600067ffffffffffffffff82111561037c5761037b610506565b5b61038582610549565b9050602081019050919050565b600061039d8261042c565b91506103a88361042c565b9250827fffffffffffffffffffffffffffffffffffffffffffffffffffffffffffffffff038211156103dd576103dc6104a8565b5b828201905092915050565b60006103f38261040c565b9050919050565b6000610405826103e8565b9050919050565b600073ffffffffffffffffffffffffffffffffffffffff82169050919050565b6000819050919050565b82818337600083830152505050565b6000600282049050600182168061045d57607f821691505b60208210811415610471576104706104d7565b5b50919050565b61048082610549565b810181811067ffffffffffffffff8211171561049f5761049e610506565b5b80604052505050565b7f4e487b7100000000000000000000000000000000000000000000000000000000600052601160045260246000fd5b7f4e487b7100000000000000000000000000000000000000000000000000000000600052602260045260246000fd5b7f4e487b7100000000000000000000000000000000000000000000000000000000600052604160045260246000fd5b600080fd5b600080fd5b600080fd5b600080fd5b6000601f19601f8301169050919050565b610563816103fa565b811461056e57600080fd5b50565b61057a8161042c565b811461058557600080fd5b5056fea26469706673582212201c445e22dceb9fc800a6e528e1786b820901a6176bd9afcbd0effeae8127826564736f6c63430008070033",
			"opcodes": "PUSH1 0x80 PUSH1 0x40 MSTORE PUSH1 0x0 PUSH1 0xC SSTORE CALLVALUE DUP1 ISZERO PUSH2 0x15 JUMPI PUSH1 0x0 DUP1 REVERT JUMPDEST POP PUSH2 0x5BE DUP1 PUSH2 0x25 PUSH1 0x0 CODECOPY PUSH1 0x0 RETURN INVALID PUSH1 0x80 PUSH1 0x40 MSTORE PUSH1 0x4 CALLDATASIZE LT PUSH2 0x29 JUMPI PUSH1 0x0 CALLDATALOAD PUSH1 0xE0 SHR DUP1 PUSH4 0x1998AEEF EQ PUSH2 0x2E JUMPI DUP1 PUSH4 0xA7E59229 EQ PUSH2 0x38 JUMPI JUMPDEST PUSH1 0x0 DUP1 REVERT JUMPDEST PUSH2 0x36 PUSH2 0x61 JUMP JUMPDEST STOP JUMPDEST CALLVALUE DUP1 ISZERO PUSH2 0x44 JUMPI PUSH1 0x0 DUP1 REVERT JUMPDEST POP PUSH2 0x5F PUSH1 0x4 DUP1 CALLDATASIZE SUB DUP2 ADD SWAP1 PUSH2 0x5A SWAP2 SWAP1 PUSH2 0x2A5 JUMP JUMPDEST PUSH2 0xE9 JUMP JUMPDEST STOP JUMPDEST PUSH1 0x1 SLOAD CALLVALUE GT ISZERO PUSH2 0xE7 JUMPI CALLVALUE PUSH1 0x1 DUP2 SWAP1 SSTORE POP CALLER PUSH1 0x9 PUSH1 0x0 PUSH2 0x100 EXP DUP2 SLOAD DUP2 PUSH20 0xFFFFFFFFFFFFFFFFFFFFFFFFFFFFFFFFFFFFFFFF MUL NOT AND SWAP1 DUP4 PUSH20 0xFFFFFFFFFFFFFFFFFFFFFFFFFFFFFFFFFFFFFFFF AND MUL OR SWAP1 SSTORE POP PUSH1 0xA DUP1 SLOAD LT ISZERO DUP1 ISZERO PUSH2 0xC7 JUMPI POP PUSH1 0xA PUSH1 0xC SLOAD LT JUMPDEST ISZERO PUSH2 0xE6 JUMPI PUSH1 0xA DUP1 PUSH1 0x0 DUP3 DUP3 SLOAD PUSH2 0xDE SWAP2 SWAP1 PUSH2 0x392 JUMP JUMPDEST SWAP3 POP POP DUP2 SWAP1 SSTORE POP JUMPDEST JUMPDEST JUMP JUMPDEST DUP5 PUSH1 0x4 DUP2 SWAP1 SSTORE POP DUP4 TIMESTAMP PUSH2 0xFC SWAP2 SWAP1 PUSH2 0x392 JUMP JUMPDEST PUSH1 0x5 DUP2 SWAP1 SSTORE POP DUP3 PUSH1 0x8 PUSH1 0x0 PUSH2 0x100 EXP DUP2 SLOAD DUP2 PUSH20 0xFFFFFFFFFFFFFFFFFFFFFFFFFFFFFFFFFFFFFFFF MUL NOT AND SWAP1 DUP4 PUSH20 0xFFFFFFFFFFFFFFFFFFFFFFFFFFFFFFFFFFFFFFFF AND MUL OR SWAP1 SSTORE POP DUP2 PUSH1 0x3 SWAP1 DUP1 MLOAD SWAP1 PUSH1 0x20 ADD SWAP1 PUSH2 0x159 SWAP3 SWAP2 SWAP1 PUSH2 0x168 JUMP JUMPDEST POP DUP1 PUSH1 0x6 DUP2 SWAP1 SSTORE POP POP POP POP POP POP JUMP JUMPDEST DUP3 DUP1 SLOAD PUSH2 0x174 SWAP1 PUSH2 0x445 JUMP JUMPDEST SWAP1 PUSH1 0x0 MSTORE PUSH1 0x20 PUSH1 0x0 KECCAK256 SWAP1 PUSH1 0x1F ADD PUSH1 0x20 SWAP1 DIV DUP2 ADD SWAP3 DUP3 PUSH2 0x196 JUMPI PUSH1 0x0 DUP6 SSTORE PUSH2 0x1DD JUMP JUMPDEST DUP3 PUSH1 0x1F LT PUSH2 0x1AF JUMPI DUP1 MLOAD PUSH1 0xFF NOT AND DUP4 DUP1 ADD OR DUP6 SSTORE PUSH2 0x1DD JUMP JUMPDEST DUP3 DUP1 ADD PUSH1 0x1 ADD DUP6 SSTORE DUP3 ISZERO PUSH2 0x1DD JUMPI SWAP2 DUP3 ADD JUMPDEST DUP3 DUP2 GT ISZERO PUSH2 0x1DC JUMPI DUP3 MLOAD DUP3 SSTORE SWAP2 PUSH1 0x20 ADD SWAP2 SWAP1 PUSH1 0x1 ADD SWAP1 PUSH2 0x1C1 JUMP JUMPDEST JUMPDEST POP SWAP1 POP PUSH2 0x1EA SWAP2 SWAP1 PUSH2 0x1EE JUMP JUMPDEST POP SWAP1 JUMP JUMPDEST JUMPDEST DUP1 DUP3 GT ISZERO PUSH2 0x207 JUMPI PUSH1 0x0 DUP2 PUSH1 0x0 SWAP1 SSTORE POP PUSH1 0x1 ADD PUSH2 0x1EF JUMP JUMPDEST POP SWAP1 JUMP JUMPDEST PUSH1 0x0 PUSH2 0x21E PUSH2 0x219 DUP5 PUSH2 0x361 JUMP JUMPDEST PUSH2 0x33C JUMP JUMPDEST SWAP1 POP DUP3 DUP2 MSTORE PUSH1 0x20 DUP2 ADD DUP5 DUP5 DUP5 ADD GT ISZERO PUSH2 0x23A JUMPI PUSH2 0x239 PUSH2 0x53A JUMP JUMPDEST JUMPDEST PUSH2 0x245 DUP5 DUP3 DUP6 PUSH2 0x436 JUMP JUMPDEST POP SWAP4 SWAP3 POP POP POP JUMP JUMPDEST PUSH1 0x0 DUP2 CALLDATALOAD SWAP1 POP PUSH2 0x25C DUP2 PUSH2 0x55A JUMP JUMPDEST SWAP3 SWAP2 POP POP JUMP JUMPDEST PUSH1 0x0 DUP3 PUSH1 0x1F DUP4 ADD SLT PUSH2 0x277 JUMPI PUSH2 0x276 PUSH2 0x535 JUMP JUMPDEST JUMPDEST DUP2 CALLDATALOAD PUSH2 0x287 DUP5 DUP3 PUSH1 0x20 DUP7 ADD PUSH2 0x20B JUMP JUMPDEST SWAP2 POP POP SWAP3 SWAP2 POP POP JUMP JUMPDEST PUSH1 0x0 DUP2 CALLDATALOAD SWAP1 POP PUSH2 0x29F DUP2 PUSH2 0x571 JUMP JUMPDEST SWAP3 SWAP2 POP POP JUMP JUMPDEST PUSH1 0x0 DUP1 PUSH1 0x0 DUP1 PUSH1 0x0 PUSH1 0xA0 DUP7 DUP9 SUB SLT ISZERO PUSH2 0x2C1 JUMPI PUSH2 0x2C0 PUSH2 0x544 JUMP JUMPDEST JUMPDEST PUSH1 0x0 PUSH2 0x2CF DUP9 DUP3 DUP10 ADD PUSH2 0x290 JUMP JUMPDEST SWAP6 POP POP PUSH1 0x20 PUSH2 0x2E0 DUP9 DUP3 DUP10 ADD PUSH2 0x290 JUMP JUMPDEST SWAP5 POP POP PUSH1 0x40 PUSH2 0x2F1 DUP9 DUP3 DUP10 ADD PUSH2 0x24D JUMP JUMPDEST SWAP4 POP POP PUSH1 0x60 DUP7 ADD CALLDATALOAD PUSH8 0xFFFFFFFFFFFFFFFF DUP2 GT ISZERO PUSH2 0x312 JUMPI PUSH2 0x311 PUSH2 0x53F JUMP JUMPDEST JUMPDEST PUSH2 0x31E DUP9 DUP3 DUP10 ADD PUSH2 0x262 JUMP JUMPDEST SWAP3 POP POP PUSH1 0x80 PUSH2 0x32F DUP9 DUP3 DUP10 ADD PUSH2 0x290 JUMP JUMPDEST SWAP2 POP POP SWAP3 SWAP6 POP SWAP3 SWAP6 SWAP1 SWAP4 POP JUMP JUMPDEST PUSH1 0x0 PUSH2 0x346 PUSH2 0x357 JUMP JUMPDEST SWAP1 POP PUSH2 0x352 DUP3 DUP3 PUSH2 0x477 JUMP JUMPDEST SWAP2 SWAP1 POP JUMP JUMPDEST PUSH1 0x0 PUSH1 0x40 MLOAD SWAP1 POP SWAP1 JUMP JUMPDEST PUSH1 0x0 PUSH8 0xFFFFFFFFFFFFFFFF DUP3 GT ISZERO PUSH2 0x37C JUMPI PUSH2 0x37B PUSH2 0x506 JUMP JUMPDEST JUMPDEST PUSH2 0x385 DUP3 PUSH2 0x549 JUMP JUMPDEST SWAP1 POP PUSH1 0x20 DUP2 ADD SWAP1 POP SWAP2 SWAP1 POP JUMP JUMPDEST PUSH1 0x0 PUSH2 0x39D DUP3 PUSH2 0x42C JUMP JUMPDEST SWAP2 POP PUSH2 0x3A8 DUP4 PUSH2 0x42C JUMP JUMPDEST SWAP3 POP DUP3 PUSH32 0xFFFFFFFFFFFFFFFFFFFFFFFFFFFFFFFFFFFFFFFFFFFFFFFFFFFFFFFFFFFFFFFF SUB DUP3 GT ISZERO PUSH2 0x3DD JUMPI PUSH2 0x3DC PUSH2 0x4A8 JUMP JUMPDEST JUMPDEST DUP3 DUP3 ADD SWAP1 POP SWAP3 SWAP2 POP POP JUMP JUMPDEST PUSH1 0x0 PUSH2 0x3F3 DUP3 PUSH2 0x40C JUMP JUMPDEST SWAP1 POP SWAP2 SWAP1 POP JUMP JUMPDEST PUSH1 0x0 PUSH2 0x405 DUP3 PUSH2 0x3E8 JUMP JUMPDEST SWAP1 POP SWAP2 SWAP1 POP JUMP JUMPDEST PUSH1 0x0 PUSH20 0xFFFFFFFFFFFFFFFFFFFFFFFFFFFFFFFFFFFFFFFF DUP3 AND SWAP1 POP SWAP2 SWAP1 POP JUMP JUMPDEST PUSH1 0x0 DUP2 SWAP1 POP SWAP2 SWAP1 POP JUMP JUMPDEST DUP3 DUP2 DUP4 CALLDATACOPY PUSH1 0x0 DUP4 DUP4 ADD MSTORE POP POP POP JUMP JUMPDEST PUSH1 0x0 PUSH1 0x2 DUP3 DIV SWAP1 POP PUSH1 0x1 DUP3 AND DUP1 PUSH2 0x45D JUMPI PUSH1 0x7F DUP3 AND SWAP2 POP JUMPDEST PUSH1 0x20 DUP3 LT DUP2 EQ ISZERO PUSH2 0x471 JUMPI PUSH2 0x470 PUSH2 0x4D7 JUMP JUMPDEST JUMPDEST POP SWAP2 SWAP1 POP JUMP JUMPDEST PUSH2 0x480 DUP3 PUSH2 0x549 JUMP JUMPDEST DUP2 ADD DUP2 DUP2 LT PUSH8 0xFFFFFFFFFFFFFFFF DUP3 GT OR ISZERO PUSH2 0x49F JUMPI PUSH2 0x49E PUSH2 0x506 JUMP JUMPDEST JUMPDEST DUP1 PUSH1 0x40 MSTORE POP POP POP JUMP JUMPDEST PUSH32 0x4E487B7100000000000000000000000000000000000000000000000000000000 PUSH1 0x0 MSTORE PUSH1 0x11 PUSH1 0x4 MSTORE PUSH1 0x24 PUSH1 0x0 REVERT JUMPDEST PUSH32 0x4E487B7100000000000000000000000000000000000000000000000000000000 PUSH1 0x0 MSTORE PUSH1 0x22 PUSH1 0x4 MSTORE PUSH1 0x24 PUSH1 0x0 REVERT JUMPDEST PUSH32 0x4E487B7100000000000000000000000000000000000000000000000000000000 PUSH1 0x0 MSTORE PUSH1 0x41 PUSH1 0x4 MSTORE PUSH1 0x24 PUSH1 0x0 REVERT JUMPDEST PUSH1 0x0 DUP1 REVERT JUMPDEST PUSH1 0x0 DUP1 REVERT JUMPDEST PUSH1 0x0 DUP1 REVERT JUMPDEST PUSH1 0x0 DUP1 REVERT JUMPDEST PUSH1 0x0 PUSH1 0x1F NOT PUSH1 0x1F DUP4 ADD AND SWAP1 POP SWAP2 SWAP1 POP JUMP JUMPDEST PUSH2 0x563 DUP2 PUSH2 0x3FA JUMP JUMPDEST DUP2 EQ PUSH2 0x56E JUMPI PUSH1 0x0 DUP1 REVERT JUMPDEST POP JUMP JUMPDEST PUSH2 0x57A DUP2 PUSH2 0x42C JUMP JUMPDEST DUP2 EQ PUSH2 0x585 JUMPI PUSH1 0x0 DUP1 REVERT JUMPDEST POP JUMP INVALID LOG2 PUSH5 0x6970667358 0x22 SLT KECCAK256 SHR DIFFICULTY 0x5E 0x22 0xDC 0xEB SWAP16 0xC8 STOP 0xA6 0xE5 0x28 0xE1 PUSH25 0x6B820901A6176BD9AFCBD0EFFEAE8127826564736F6C634300 ADDMOD SMOD STOP CALLER "
		},
		"gasEstimates": {
			"creation": {
				"codeDepositCost": "294000",
				"executionCost": "5337",
				"totalCost": "299337"
			},
			"external": {
				"bid()": "infinite",
				"openAuction(uint256,uint256,address,string,uint256)": "infinite"
			}
		},
		"methodIdentifiers": {
			"bid()": "1998aeef",
			"openAuction(uint256,uint256,address,string,uint256)": "a7e59229"
		}
	},
	"abi": [
		{
			"inputs": [],
			"name": "bid",
			"outputs": [],
			"stateMutability": "payable",
			"type": "function"
		},
		{
			"inputs": [
				{
					"internalType": "uint256",
					"name": "minPrice",
					"type": "uint256"
				},
				{
					"internalType": "uint256",
					"name": "time",
					"type": "uint256"
				},
				{
					"internalType": "contract IERC721",
					"name": "nft",
					"type": "address"
				},
				{
					"internalType": "string",
					"name": "descrip",
					"type": "string"
				},
				{
					"internalType": "uint256",
					"name": "increment",
					"type": "uint256"
				}
			],
			"name": "openAuction",
			"outputs": [],
			"stateMutability": "nonpayable",
			"type": "function"
		}
	]
}