{
	"data": {
		"bytecode": {
			"linkReferences": {},
			"object": "6080604052600060075534801561001557600080fd5b5061017b806100256000396000f3fe60806040526004361061001e5760003560e01c80631998aeef14610023575b600080fd5b61002b61002d565b005b6002543411156100b45734600281905550336000806101000a81548173ffffffffffffffffffffffffffffffffffffffff021916908373ffffffffffffffffffffffffffffffffffffffff160217905550600a600354101580156100935750600a600754105b156100b357600a600360008282546100ab91906100b6565b925050819055505b5b565b60006100c18261010c565b91506100cc8361010c565b9250827fffffffffffffffffffffffffffffffffffffffffffffffffffffffffffffffff0382111561010157610100610116565b5b828201905092915050565b6000819050919050565b7f4e487b7100000000000000000000000000000000000000000000000000000000600052601160045260246000fdfea26469706673582212205f4102f54c9d9b65fcb1a445bafacbf88d604332d6866f7254a9707f55596b1464736f6c63430008070033",
			"opcodes": "PUSH1 0x80 PUSH1 0x40 MSTORE PUSH1 0x0 PUSH1 0x7 SSTORE CALLVALUE DUP1 ISZERO PUSH2 0x15 JUMPI PUSH1 0x0 DUP1 REVERT JUMPDEST POP PUSH2 0x17B DUP1 PUSH2 0x25 PUSH1 0x0 CODECOPY PUSH1 0x0 RETURN INVALID PUSH1 0x80 PUSH1 0x40 MSTORE PUSH1 0x4 CALLDATASIZE LT PUSH2 0x1E JUMPI PUSH1 0x0 CALLDATALOAD PUSH1 0xE0 SHR DUP1 PUSH4 0x1998AEEF EQ PUSH2 0x23 JUMPI JUMPDEST PUSH1 0x0 DUP1 REVERT JUMPDEST PUSH2 0x2B PUSH2 0x2D JUMP JUMPDEST STOP JUMPDEST PUSH1 0x2 SLOAD CALLVALUE GT ISZERO PUSH2 0xB4 JUMPI CALLVALUE PUSH1 0x2 DUP2 SWAP1 SSTORE POP CALLER PUSH1 0x0 DUP1 PUSH2 0x100 EXP DUP2 SLOAD DUP2 PUSH20 0xFFFFFFFFFFFFFFFFFFFFFFFFFFFFFFFFFFFFFFFF MUL NOT AND SWAP1 DUP4 PUSH20 0xFFFFFFFFFFFFFFFFFFFFFFFFFFFFFFFFFFFFFFFF AND MUL OR SWAP1 SSTORE POP PUSH1 0xA PUSH1 0x3 SLOAD LT ISZERO DUP1 ISZERO PUSH2 0x93 JUMPI POP PUSH1 0xA PUSH1 0x7 SLOAD LT JUMPDEST ISZERO PUSH2 0xB3 JUMPI PUSH1 0xA PUSH1 0x3 PUSH1 0x0 DUP3 DUP3 SLOAD PUSH2 0xAB SWAP2 SWAP1 PUSH2 0xB6 JUMP JUMPDEST SWAP3 POP POP DUP2 SWAP1 SSTORE POP JUMPDEST JUMPDEST JUMP JUMPDEST PUSH1 0x0 PUSH2 0xC1 DUP3 PUSH2 0x10C JUMP JUMPDEST SWAP2 POP PUSH2 0xCC DUP4 PUSH2 0x10C JUMP JUMPDEST SWAP3 POP DUP3 PUSH32 0xFFFFFFFFFFFFFFFFFFFFFFFFFFFFFFFFFFFFFFFFFFFFFFFFFFFFFFFFFFFFFFFF SUB DUP3 GT ISZERO PUSH2 0x101 JUMPI PUSH2 0x100 PUSH2 0x116 JUMP JUMPDEST JUMPDEST DUP3 DUP3 ADD SWAP1 POP SWAP3 SWAP2 POP POP JUMP JUMPDEST PUSH1 0x0 DUP2 SWAP1 POP SWAP2 SWAP1 POP JUMP JUMPDEST PUSH32 0x4E487B7100000000000000000000000000000000000000000000000000000000 PUSH1 0x0 MSTORE PUSH1 0x11 PUSH1 0x4 MSTORE PUSH1 0x24 PUSH1 0x0 REVERT INVALID LOG2 PUSH5 0x6970667358 0x22 SLT KECCAK256 0x5F COINBASE MUL CREATE2 0x4C SWAP14 SWAP12 PUSH6 0xFCB1A445BAFA 0xCB 0xF8 DUP14 PUSH1 0x43 ORIGIN 0xD6 DUP7 PUSH16 0x7254A9707F55596B1464736F6C634300 ADDMOD SMOD STOP CALLER "
		},
		"gasEstimates": {
			"creation": {
				"codeDepositCost": "75800",
				"executionCost": "5129",
				"totalCost": "80929"
			},
			"external": {
				"bid()": "infinite"
			}
		},
		"methodIdentifiers": {
			"bid()": "1998aeef"
		}
	},
	"abi": [
		{
			"inputs": [],
			"name": "bid",
			"outputs": [],
			"stateMutability": "payable",
			"type": "function"
		}
	]
}